:020000040800F2
:10000000C848002071020008332B00082728000888
:10001000312B0008C50A0008CD30000800000000A0
:10002000000000000000000000000000B101000816
:10003000890C0008000000000D020008852B000854
:100040008B0200088B0200088B0200088B0200085C
:100050008B0200088B0200088B0200088B0200084C
:100060008B0200088B0200088B0200088B0200083C
:100070008B0200088B0200088B0200088B0200082C
:100080008B0200088B0200088B02000800000000B1
:100090000000000000000000000000008B020008CB
:1000A0008B020008B52C00088B0200088B020008A8
:1000B000C12C00088B0200088B0200088B0200088C
:1000C0008B0200088B0200088B0200088B020008DC
:1000D0008B0200088B0200088B0200080000000061
:1000E0008B0200088B0200088B0200080000000051
:1000F0000000000000000000000000008B0200086B
:10010000000000008B0200088B0200088B02000830
:1001100000000000000000000000000000000000DF
:10012000D90B00088B0200088B0200088B02000824
:100130008B0200080000000000000000000000002A
:100140000000000000000000000000008B0200081A
:100150008B0200088B0200088B0200088B0200084B
:100160008B0200088B020008000000000000000065
:10017000000000000000000000000000000000007F
:10018000000000008B0200080000000000000000DA
:100190008B0200088B020008DFF810D000F0ECF9A9
:1001A00000480047D9320008AFF30080C84800205B
:1001B0002C4B19680868B0E8F04F80F30988BFF34A
:1001C0006F8F4FF0000080F311887047000000002F
:1001D00008480068006880F308884FF0000080F34A
:1001E000148862B661B6BFF34F8FBFF36F8F00DF25
:1001F00000BF00BF08ED00E0DFF80C00016841F42B
:1002000070010160704700BF88ED00E0EFF30980E6
:10021000BFF36F8F134B1A681EF0100F08BF20ED4D
:10022000108A20E9F04F106009B44FF0500080F3BD
:100230001188BFF34F8FBFF36F8F03F03BFE4FF07A
:10024000000080F3118809BC19680868B0E8F04F15
:100250001EF0100F08BFB0EC108A80F30988BFF3BE
:100260006F8F704748000020EFF305807047000053
:100270000648804706480047FEE7FEE7FEE7FEE740
:10028000FEE7FEE7FEE7FEE7FEE7FEE7412C00089B
:10029000990100082DE9F05F0546002092469B4633
:1002A00088460646814640241BE02846414647468C
:1002B000224600F0F4F853465A46C01A914110D332
:1002C00011461846224600F0DBF82D1A67EB0108AC
:1002D0004F4622460120002100F0D2F817EB00091A
:1002E0004E41201EA4F10104DFDC484631462A4677
:1002F0004346BDE8F09F40EA01039B0703D009E0B5
:1003000008C9121F08C0042AFAD203E011F8013B01
:1003100000F8013B521EF9D27047D2B201E000F85A
:10032000012B491EFBD270470022F6E710B5134699
:100330000A4604461946FFF7F0FF204610BD2DE996
:10034000FE4F81EA030404F0004421F000410094D0
:100350004FF0000B23F0004350EA01045ED052EA54
:1003600003045BD0C3F30A54C1F30A552C44A4F22E
:10037000F3340194A0FB0254C1F3130141F4801142
:10038000C3F3130343F4801301FB024400FB034E49
:10039000840A970A44EA815447EA8357A4FB076812
:1003A00002958D0A05FB07854FEA932C04FB0C543C
:1003B0002705029D4FEA065847EA1637B5EB0805B0
:1003C0006EEB070C870E920E47EA811742EA831202
:1003D000A7FB0201B6EB0B0164EB00042B0D43EA13
:1003E0000C335E1844EB1C50DA465146E7FB020121
:1003F000C5F313044FEA0B3343EA14534FEA0432B4
:10040000019C43EA0603A4F10C040294009CCDE98C
:1004100000B400F063F803B0BDE8F08F002001469F
:10042000F9E7C1F30A5210B5C1F3130140F2FF33EB
:1004300041F480119A4201DA002010BD40F23343AA
:100440009A42A2F2334203DC524200F028F810BD77
:10045000904010BD30B50B460146002020220124FB
:1004600009E021FA02F59D4205D303FA02F5491B82
:1004700004FA02F52844151EA2F10102F1DC30BD98
:10048000202A04DB203A00FA02F100207047914054
:10049000C2F1200320FA03F3194390407047202A49
:1004A00004DB203A21FA02F00021704721FA02F31E
:1004B000D040C2F12002914008431946704710B560
:1004C000141E73F1000408DA401C41F10001921877
:1004D0005B411A4301D120F0010010BD2DE9F04D20
:1004E00092469B4611B1B1FA81F202E0B0FA80F275
:1004F00020329046FFF7C4FF04460F4640EA0A0048
:1005000041EA0B0153465A46084313D0114653EAB9
:10051000010019D0C8F140025046FFF7C0FF054660
:100520000E46504659464246FFF7AAFF084305D0FB
:10053000012004E020463946BDE8F08D0020054347
:1005400046EAE0762C4337430A986305E40AA0EBB9
:1005500008000022FD0A44EA47540A3002D5002070
:100560000146E9E7010510196941DDE9084500196F
:100570006941BDE8F04DA2E7064C074D06E0E06892
:1005800040F0010394E8070098471034AC42F6D3DA
:10059000FFF706FE584C0008784C00081CB5084DC3
:1005A0004FF0FF3422466946286A03F0C1FE002856
:1005B000F8D000209DED000B00F048F8F2E70000B5
:1005C0000000002010B501212DED028B00209FEDD1
:1005D0000B8B00F017F80020B0EE480AF0EE680A26
:1005E00000F034F84FF47A7002F0B0FEBDEC028BEC
:1005F0000020BDE8104003F053BB000000000000E5
:100600000088C34010B40F4A002401235070917039
:1006100010B1012802D002E0147000E0137059B14B
:1006200001290CD10848C0F88C32C0F88832C0F8D3
:10063000A84210BC00F028B810BC00F015B810BCDF
:1006400070470000320000200000404205498A78CF
:1006500009781AB1012A03D100F07CB800F030B853
:10066000704700003200002006480021C0F88C12BC
:10067000C0F89412C0F890120122C0F89022C0F87D
:1006800090127047008040420C480021C0F88C1244
:10069000C0F89412C0F890120122C0F89022C0F85D
:1006A0009012C0F88C12C0F88C22C0F88C12C0F8DE
:1006B0009412C0F89422C0F894127047008040420F
:1006C00070B50C46054600F067FA04F0030141EAF4
:1006D000C5011E4C81F0FF0241EA024121601C4924
:1006E0000122C1F88C220023C1F88C32050E85F05E
:1006F000FF0645EA06452560C1F88C22C1F88C3218
:10070000C0F3074585F0FF0645EA06452560C1F8B8
:100710008C22C1F88C32C0F3072585F0FF0645EA2C
:1007200006452560C1F88C22C1F88C32C0B280F039
:10073000FF0540EA05402060C1F88C22C1F88C32E8
:10074000C1F89422C1F8943270BD0000180802402C
:10075000008040422DE9F0410C46804600F01CFA32
:100760000025304AC6B229465FF0010326FA05F794
:1007700007F00107C2F8A872C2F88C32C2F88C12D6
:100780006D1CEDB2082DF1D3C0F307265FF0000514
:1007900026FA05F707F00107C2F8A872C2F88C32F2
:1007A000C2F88C126D1CEDB2082DF1D3C0F30746D0
:1007B0005FF0000526FA05F707F00107C2F8A872F6
:1007C000C2F88C32C2F88C126D1CEDB2082DF1D338
:1007D000050E002025FA00F606F00106C2F8A86210
:1007E000C2F88C32C2F88C12401CC0B20828F1D377
:1007F00004F0030444EAC800C4B2002024FA00F55F
:1008000005F00105C2F8A852C2F88C32C2F88C1269
:10081000401CC0B20828F1D3C2F89432C2F8941236
:10082000BDE8F0810080404210B50146806B026C4B
:1008300012F0500F05D0026CD20626D500F0F1FA66
:1008400010BD016C41F40071016401688A6812F006
:10085000405F17D1027EAAB9CA6A12F4700F02D0A3
:100860008A6852050ED44A6822F020024A60016C60
:1008700021F480710164016CC90403D4016C41F05E
:100880000101016400F0B6FA10BD806BC26CBDE8D6
:1008900010400846104710B5806B40210164416C40
:1008A00041F00401416400F0BCFA10BD10B5806B4A
:1008B00000F0B6FA10BD0000464910B54A6822F4AF
:1008C00040324A604A6843681A434A6001684A688D
:1008D00022F480724A6001684A68036942EA03228E
:1008E0004A6001684A6822F040724A6001684A68BA
:1008F00083681A434A6001688A6822F400628A6049
:1009000001688A68C3681A438A60816A6FF07062FE
:10091000D14201688A6822F070628A6001688A6840
:100920000CD0836A1A438A6001688A6822F04052B8
:100930008A6001688A68C36A1A4301E022F0405263
:100940008A6001688A6822F002028A6001688A6807
:10095000037E42EA43028A6090F820100029016871
:100960004A680FD042F400624A6001684A6822F483
:1009700060424A6001684A68174C436A04EB43339B
:100980001A4301E022F400624A600168CA6A22F454
:100990007002CA620168CA6A838B104C04EB03536D
:1009A0001A43CA6201688A6822F400728A60016888
:1009B0008A6890F8303042EA43228A6001688A6887
:1009C00022F480628A6001688A68406942EA802075
:1009D000886010BD0023014000E0FFFF0000F0FF31
:1009E00010B5FA220549064800F0F8FA054801F06A
:1009F00041FBBDE81040002003F052B9B4000020D4
:100A00001C060020C40600204FF0FF3ADFF890805B
:100A1000244EDFF8949020255146D8F8240002F0A7
:100A2000FBFC0028F8D1214F002400BF37F8141038
:100A30001FA002F04DFB641CA4B2FA2CF6D31E4892
:100A400001F080FB1D4800F05BFB1D4930688842C7
:100A500002D91B484C3805E01349B831884203D904
:100A600017485038056007E00F495831884248461A
:100A700001D9C56000E0856010496FF00200096887
:100A800008600E4800F044FAFA2208490B4800F0CA
:100A9000A5FA094801F0EEFA0A2002F057FCBBE77C
:100AA000000000206406002000600240B400002026
:100AB00025640D0A00000000C40600201C0600206A
:100AC00058640240FEE700002DED028B84B02B49F4
:100AD0009FED2B8B0125D1E90201CDE90201DFF861
:100AE000A8A02A4F00268DED008B4FF400594FF43B
:100AF0007A784946504600F0E5FD0446012D01D0C4
:100B00002DB135E0A4BB03F059FE834630E0012C43
:100B10002ED1142002F01AFC03F050FEA0EB0B05BE
:100B200045450AD8761C06F0030602A800EB4601EC
:100B300000230A22F86903F0FDFAA5F5FA604045A2
:100B400009D800239FED120B0A228DED000B694698
:100B5000386A03F0EFFAA5F6B835B5F5FA6F07D89D
:100B60008DED008B00230A226946386A03F0E2FA11
:100B700025460A2002F0EAFBBBE70000F04A000825
:100B8000000000000088C340000802400000002070
:100B90000000000080842E410A4810B5407868B1FA
:100BA00001280ED19FED081B51EC100B53EC112BBB
:100BB000FFF7C5FBBDE81040FFF733BC9FED041BFA
:100BC000F2E710BD3200002079A7DFDE65DC374098
:100BD00095D626E80B2E4140014800F011BB0000DD
:100BE0006406002001681823CAB2103AB2FBF3F27F
:100BF000054B6FF30901032A9B5CC36500D9091DEE
:100C00008165084670470000E44B000810B50146B6
:100C100000208B698A6A4FF0C07453B1B3F5005F4E
:100C200015D072B1012A0CD0022A0AD0032A09D1A8
:100C300004E01AB1012A06D0022A03D1C96AC90107
:100C400000D5012010BDC96AA142FAD010BD002A0A
:100C5000F7D0012AF2D0022AF3D0032AF3D010BD34
:100C600030B50468256825F4802525600468636034
:100C70008368402B036803D099600068C26030BD70
:100C80009A600068C16030BD704772B6FEE7000030
:100C900078B50024009490F83C20012A19D0012254
:100CA00080F83C200A6807230568092A13D9EE68F2
:100CB0000A3A02EB420293409E43EE600B788A6848
:100CC0000A3B03EB43039A400368DD682A43DA607A
:100CD00010E0022078BD2E6902EB420293409E4351
:100CE0002E610B788A6803EB43039A4003681D6901
:100CF0002A431A614A681F23072A13D205686E6BBC
:100D0000521E02EB820293409E436E630A8893B2A6
:100D10000A79521E02EB820293400268556B2B4304
:100D2000536327E005680D2A12D22E6BD21F02EB07
:100D3000820293409E432E630B790A88DB1F92B296
:100D400003EB83039A4003681D6B2A431A6311E087
:100D5000EE6A0D3A02EB820293409E43EE620B79FB
:100D60000A880D3B92B203EB83039A400368DD6A65
:100D70002A43DA621B4B0568194A9D420AD10D6865
:100D8000122D07D1556825F400055560556845F4C6
:100D90008005556005689D421DD1134D0B68AB421F
:100DA00001D0112B17D1536823F48003536053688B
:100DB00043F4000353600968A9420CD10B490C4A63
:100DC0000968B1FBF2F101EB8101490000E0491E25
:100DD00000910029FBD180F83C40002078BD000044
:100DE00000230140002001401200001044000020B8
:100DF00040420F0010B500680649884208D10648F5
:100E000001F0A0F90548406ABDE8104002F0DCBAE4
:100E100010BD000000200140C4060020000000209A
:100E20007047704770B504004FF0000503D0206C88
:100E3000002610B107E0012070BD204600F01CF82C
:100E4000666484F83C60206CC00610D4206C20F4EA
:100E5000885040F0020020642046FFF72DFD6664B4
:100E6000206C20F0020040F00100206400E0012529
:100E700084F83C60284670BD70B586B006461421E3
:100E80006846FFF751FA1D493068884233D11C4843
:100E90000025016841F480710160006800F48070F1
:100EA000059017481438016841F00101016000689D
:100EB000694600F001000590012000900320CDE973
:100EC0000105104800F00EFB104C0F48C4E9000566
:100ED0000015A560C4E90350400060618000C4E9CA
:100EE000060525622046656200F05AFA08B1FFF750
:100EF000CCFEB463A66306B070BD000000200140C4
:100F000044380240000002401064024064060020A1
:100F100018B50021009190F83C20012A07D0012249
:100F200080F83C2002689368DB0702D011E00220C1
:100F300018BD936843F001039360244A244B126860
:100F4000B2FBF3F202EB420200E0521E0092002AD2
:100F5000FBD102689368DB072ED0036C40F201647A
:100F6000A34343F48073036453685B0505D5036CA6
:100F700023F4005343F480530364036CDB0404D56F
:100F8000436C23F00603436400E0416480F83C10A6
:100F900010496FF02203136049680068C90602D047
:100FA0000D49884210D1816811F0405F0CD18168F1
:100FB00041F08041816007E0016C41F01001016463
:100FC000416C41F001014164002018BD4400002043
:100FD00040420F000023014000200140F8B50446C4
:100FE00000200E46009094F83C10012907D0012102
:100FF00084F83C1021688B68DB0702D011E00220E6
:10100000F8BD8B6843F001038B603649364B0968A5
:10101000B1FBF3F101EB410100E0491E0091002911
:10102000FBD121688B68DB0503D58B6823F48073C3
:101030008B6021688B68DB0749D0236C40F2016527
:10104000AB4343F4807323644968490505D5216C9B
:1010500021F4005141F480512164216CC90404D56C
:10106000616C21F00601616400E0606484F83C007A
:10107000A16B1F481D4DC863A16B1E480864A16B7E
:101080001D48C86421686FF022000860206841682C
:1010900041F0806141602068816841F48071816025
:1010A0002168134632464C31A06B00F0E3F96868C2
:1010B000C006206802D01149884210D1816811F021
:1010C000405F0CD1816841F08041816007E0206C75
:1010D00040F010002064606C40F00100606400206B
:1010E000F8BD00004400002040420F0000230140F2
:1010F00029080008AD0800089708000800200140F2
:1011000010B50446002094F83C1001290CD00121B0
:1011100084F83C1021688A6822F001028A60216804
:101120008A68D20702D01DE0022010BD8A6822F42E
:1011300080728A60A16B91F83520022A07D1084697
:1011400000F014F818B1216C41F0400121642168CD
:101150004A6822F080624A60216C21F4885141F093
:1011600001012164002184F83C1010BD2DE9F041FB
:101170000446876D00F0B8FA064694F8350000255D
:10118000022806D08020606584F834500120BDE834
:10119000F0812068016821F0160101602068416932
:1011A00021F080014161206C08B9A06C20B1206859
:1011B000016821F0080101602068016821F0010147
:1011C00001600CE000F090FA801B052807D9202070
:1011D0006065032084F8350084F83450D7E7206830
:1011E0000068C007EED194F85C103F208840B860DA
:1011F000012084F8350084F834500020C7E700004F
:101200002DE9F84304464FF00009CDF800906348FB
:101210004FF41651A56D0068B0FBF1F72E6894F8F5
:101220005C10082000FA01F131420FD021680A68F1
:1012300052070BD50A6822F004020A6094F85C1089
:101240008840A860606D40F00100606594F85C1013
:101250004FF0010808FA01F0304208D021684969CE
:10126000090604D5A860606D40F00200606594F83E
:101270005C1004208840304208D021680968890742
:1012800004D5A860606D40F00400606594F85C10BF
:1012900010208840304218D021680968090714D509
:1012A000A86020680168490304D50068000308D5D8
:1012B000A16C07E00168C90503D4016821F00801A9
:1012C0000160216C09B12046884794F85C10202009
:1012D0008840304231D021680968C9062DD5A86000
:1012E00094F8350005282068016806D0490347D5E1
:1012F000006800031DD4616C1CE021F01601016040
:101300002068416921F080014161206C08B9A06C1E
:1013100020B12068016821F00801016094F85C1098
:101320003F208840A86084F8358084F83490216D8F
:101330001FE0E16B09B120468847606D00282BD083
:10134000606DC00714D0052084F83500206801685E
:1013500021F0010101600098401C0090B84203D8C0
:1013600020680068C007F6D184F8358084F834908E
:10137000E16C002910D001B02046BDE8F0430847D9
:101380000168C905D5D4016821F01001016084F815
:10139000358084F83490CCE7BDE8F8834400002021
:1013A0002DE9F041044600F09FF906465CB10220A9
:1013B00084F83500002584F834502068016821F055
:1013C000010101600DE00120BDE8F08100F08CF921
:1013D000801B052805D920206065032084F835008E
:1013E000F2E720680068C007F0D122681168204841
:1013F0000140D4E901031843D4E9033633431843C9
:1014000063691843A3691843E3691843236A1843BF
:101410000843616A042903D1D4E90B131943084333
:10142000106020684069666A20F0070130460E436C
:10143000012704280CD1A06A0643E06A40B1204687
:10144000FFF7E4FB20B14020606584F83570BAE70F
:10145000206846612046FFF7C5FB94F85C203F21D9
:1014600091408160656584F835700020ACE700002C
:101470003F8010F02DE9F0410446866D90F834006D
:10148000002501280DD0012084F8340094F835702F
:101490000020012F07D084F8340002252846BDE83B
:1014A000F0810220FBE7022784F835706065204652
:1014B000FFF7D6FB94F85C103F208840B0602068AE
:1014C000016841F016010160206C20B120680168BC
:1014D00041F0080101602068016841F001010160EC
:1014E000DCE700002DE9F84FDFF8B8A10022012465
:1014F00003254FF00F090AF1040BAAF1040E00BFF7
:101500000B6804FA02F63340B34273D10F7907F047
:101510000307012F01D0022F16D187684FEA420836
:1015200005FA08FC27EA0C07D1F80CC00CFA08FCF5
:101530004CEA070CC0F808C04768B7430E79C6F3F9
:10154000001696403E4346600E79F643B6070DD02E
:10155000C768560005FA06FC27EA0C07D1F808C050
:101560000CFA06FC4CEA070CC0F80CC00E7906F029
:101570000306022E10D1D60800EB8608D8F82060AA
:1015800057074FEAD76C09FA0CF7BE430F6907FA01
:101590000CF73743C8F8207006684FEA420C05FA8A
:1015A0000CF7BE430F7907F0030707FA0CF7374330
:1015B00007604E6816F4403F6DD03B4E376847F4E5
:1015C00080473760366822F0030706F480460096AD
:1015D000364E07EB060CDCF8086897073F0F09FA50
:1015E00007F826EA0806DFF8C880404503D14FF027
:1015F00000081EE04FE0DFF8BC80404502D14FF00C
:10160000010816E0DFF8B080404502D14FF0020833
:101610000FE0DFF8A880404502D14FF0030808E052
:10162000DFF89C80404502D14FF0040801E04FF004
:10163000070808FA07F848EA0608CCF80888DAF834
:1016400000605746D1F804C09E435FEACC2C00D519
:101650001E433E60DBF800605F46D1F804C09E4345
:101660005FEA8C2C00D51E433E60DEF800607746B2
:10167000D1F804C09E435FEA8C3C00D51E433E6017
:10168000084F083F3E68D1F804C09E435FEACC3C57
:1016900000D51E433E60521C102AFFF431AFBDE856
:1016A000F88F0000083C01404438024000300140FF
:1016B000000002400004024000080240000C02400A
:1016C000001002400069084000D0012070474269C4
:1016D00021EA02030A4043EA0241816170470AB1EC
:1016E000816170470904FBE701488068704700008A
:1016F00038000020024881680278114481607047F8
:10170000380000200B4810B5016841F400710160F9
:10171000016841F480610160016841F480710160F9
:10172000032000F09FF80F2000F006F800F050F8BA
:10173000002010BD003C024030B50546204887B06F
:101740000024016841F001010160006806A900F071
:101750000100009001A800F031F90498B0B100F048
:101760004DF9400017494FF08042B0FBF1F11648A7
:10177000491E026040F2E732C0E90324C0E90114C7
:10178000846100F035FC040003D015E000F036F968
:10179000E8E70D4800F0A0FC04000DD11C2000F08B
:1017A00033F8102D07D2002229461C2000F03AF809
:1017B0000648056000E0012407B0204630BD000067
:1017C0004038024040420F00D40500203C00002079
:1017D0000C4882B0016841F480410160006800F467
:1017E000804000900748001F016841F0805101606F
:1017F0000068002200F0805000900F21901E02B07F
:1018000000F010B844380240002809DB00F01F0245
:10181000012191404009800000F1E020C0F8001152
:1018200070470000F0B40E4B1B680C46C3F3022354
:10183000C3F10705042D00D90425191D072901D27C
:10184000002300E0DB1E012606FA05F1491E2140B7
:1018500099409E40761E16403143F0BC01F048BCD2
:101860000CED00E0064900F0070208684FF6FF03A0
:10187000184040EA0220034A104308607047000005
:101880000CED00E00000FA052DE9F0470E460500DA
:1018900065D0DFF81481D8F80000F7B200F0070037
:1018A000B04207D288F80070D8F8000000F00700B6
:1018B000B04254D128683D4C810712D5400703D56A
:1018C000206840F4E05020602878000703D52068A5
:1018D00040F4604020602068A96820F0F0000843D0
:1018E00020602878C0072DD0304968680839012861
:1018F00012D0022813D0032811D0096889070029C3
:101900002DDA216821F0030101432160FFF7ECFE8D
:10191000814641F2883A0EE009688903EFE70968D9
:101920008901ECE7FFF7E0FEA0EB0901514502D980
:101930000320BDE8F0872068696800F00C00B0EB78
:10194000810FEFD1D8F80010404601F00701B142F5
:1019500007D90770006800F00700B04201D00120ED
:10196000E7E72878400705D52068E96820F4E050CB
:10197000084320602878000706D52068296920F4EC
:10198000604040EAC100206000F058F82168084A31
:10199000C1F30311515CC84006490860064800685D
:1019A000FFF7CAFE0020C4E7003C024008380240AE
:1019B000EC4B0008440000203C0000200F22026095
:1019C0000C4A136803F003034360136803F0F00349
:1019D0008360136803F4E053C36012684FF4E0536C
:1019E00003EAD20202610448006800F007000860C0
:1019F0007047000008380240003C02400448054996
:101A000000680968044AC1F38221515CC8407047EC
:101A10004400002008380240FC4B000804480549F7
:101A200000680968044AC1F34231515CC8407047FC
:101A30004400002008380240FC4B0008154810B54F
:101A4000006810F00C02144813D04110042A0FD083
:101A5000082A0ED10F4C241F2268236802F03F028F
:101A60005B0207D52068C0F38810A0FB010106E0E7
:101A7000084610BD2168C1F38811A1FB00010023B5
:101A8000FEF708FC2168C1F30141491C4900B0FB85
:101A9000F1F010BD083802400024F4002DE9F84FA1
:101AA00004006ED02078DFF84C93C007A9F104053C
:101AB0004AD009F104000168C1F38101012908D06D
:101AC0000068C0F3810002280AD1D9F80000400262
:101AD00006D52868800337D560680028E1D033E058
:101AE0006068B0F5803F10D0B0F5A02F286810D006
:101AF00020F480302860286820F480202860606806
:101B0000A8B1FFF7F1FD06460DE0286840F48030EB
:101B1000F4E740F480202860F7E700BFFFF7E4FD1A
:101B2000801B642873D828688003F7D50CE0FFF782
:101B3000DBFD064605E000BFFFF7D6FD801B6428ED
:101B4000F0D828688003F7D42078DFF8AC828007CB
:101B50004FF0000A3ED5A748001D016811F00C0F98
:101B600008D00068C0F3810002280BD1D9F800002A
:101B7000400207D42868800716D5E068012800D104
:101B800012E033E1E068B8B10120C8F80000FFF7C7
:101B9000ABFD064605E000BFFFF7A6FD801B02284F
:101BA000C0D828688007F7D52868216920F0F80098
:101BB00040EAC10028600DE0C8F800A0FFF794FDDE
:101BC000064604E0FFF790FD801B02281FD8286816
:101BD0008007F7D42078000722D5864F87486169AF
:101BE000703771B101210160FFF77EFD064604E008
:101BF000FFF77AFD801B022809D838688007F7D5DF
:101C00000EE0C0F800A0FFF76FFD064605E082E099
:101C1000FFF76AFD801B02287DD838688007F7D45B
:101C20002078400768D5DFF8CCB100270BF13C0BDA
:101C3000DBF80000C0000BD4DBF8001041F080514D
:101C4000CBF80010DBF80000012700F08050009076
:101C50006B4E3068C00510D4306840F4807030603E
:101C6000FFF742FD009005E0FFF73EFD0099401AA6
:101C7000022850D83068C005F6D55E4EA0686C3694
:101C800001280FD00528306810D020F00100306006
:101C9000306820F004003060A068B8B1FFF724FD80
:101CA00000900FE0306840F00100F4E740F00400DD
:101CB0003060F7E7FFF718FD0099411A41F28830CC
:101CC000814266D830688007F4D50EE0FFF70CFD3E
:101CD000009007E0FFF708FD0099411A41F28830B3
:101CE000814256D830688007F4D42FB1DBF8001059
:101CF00021F08051CBF80010A069C8B33D49091DFF
:101D00000968C1F3810102294AD00228504607D050
:101D1000C8F8600000E03CE0FFF7E6FC04463BE06A
:101D20004746C8F86000FFF7DFFC064605E000BF45
:101D3000FFF7DAFC801B02282BD828688001F7D433
:101D4000D4E907010843A16A2E4A490802EB014180
:101D5000626A41EA8211084394F82C1040EA01615A
:101D6000C9F8001001203866FFF7BEFC044606E003
:101D70003EE000BFFFF7B8FC001B022809D8286826
:101D80008001F7D534E000BFFFF7AEFC001B02284E
:101D900002D90320BDE8F88F28688001F4D427E039
:101DA0000128F7D0D9F80000E26900F480019142DF
:101DB0001CD1226A00F03F01914217D147F6C07151
:101DC000626A0140B1EB821F10D1A26A4FF0FF336B
:101DD00000F4403103EB5202B1EB024F06D194F80C
:101DE0002C1000F07060B0EB016F01D00120D1E742
:101DF0000020CFE70438024000004742800E4742EF
:101E0000007000400000FFFF7047704710B590F869
:101E10003C20012A22D0012280F83C20CA688C682C
:101E200022F4407222434C6822F4806222430C6800
:101E300022F4006222430C6922F4805222434C694E
:101E400022F400522243C969002322F480420A434B
:101E500001684A6480F83C30002010BD022010BDAB
:101E600070B590F83C20012A2CD0012480F83C4029
:101E7000022280F83D2003685A689D6822F07006AF
:101E80000A6832435A60104B02689A420ED0B2F18F
:101E9000804F0BD00D4B9A4208D00D4B9A4205D083
:101EA0000C4B9A4202D00C4B9A4204D1496825F05F
:101EB00080031943916080F83D40002180F83C1078
:101EC000084670BD022070BD0000014000040040C3
:101ED00000080040000C00400040014010B50446DE
:101EE000022249B104290ED0082913D094F84500E4
:101EF000012816D0012010BD94F842000128F9D124
:101F000084F842200FE094F843000128F2D184F8CD
:101F1000432008E094F844000128EBD184F84420E1
:101F200001E084F845200422206800F028FF2068A2
:101F3000416C41F4004141640E49206888420ED052
:101F4000B0F1804F0BD00C49884208D00B49884231
:101F500005D00B49884202D00A49884204D18168E1
:101F600001F00701062903D0016841F00101016079
:101F7000002010BD000001400004004000080040A7
:101F8000000C00400040014070B504460D4600685A
:101F9000002200F0F4FE2068036A41F211110B42A6
:101FA00040F2444206D1036A134203D1436C23F446
:101FB000004343642068036A0B4206D1016A114260
:101FC00003D1016821F00101016001203DB1042D20
:101FD00008D0082D09D084F84500002070BD84F891
:101FE0004200FAE784F84300F7E784F84400F4E796
:101FF00010B5040003D094F83D0010B107E00120B3
:1020000010BD002084F83C00204600F01FF802209C
:1020100084F83D00211D206800F058FE012084F85E
:10202000460084F83E0084F83F0084F8400084F8BD
:10203000410084F8420084F8430084F8440084F8A6
:10204000450084F83D00002010BD000008B5006880
:102050000649884208D10648016841F00201016042
:10206000006800F00200009008BD0000000400407D
:102070004038024090F83D10012901D001207047FE
:10208000022180F83D1000680E4988420ED0B0F160
:10209000804F0BD00C49884208D00C49884205D0AB
:1020A0000B49884202D00B49884204D1816801F073
:1020B0000701062903D0016841F0010101600020F9
:1020C000704700000000014000040040000800408C
:1020D000000C00400040014090F83D10012901D063
:1020E00001207047022180F83D100168CA6842F063
:1020F0000102CA6000680E4988420ED0B0F1804FDC
:102100000BD00C49884208D00B49884205D00B49B6
:10211000884202D00A49884204D1816801F007014F
:10212000062903D0016841F00101016000207047D9
:10213000000001400004004000080040000C004086
:102140000040014001680A6A41F211131A4207D1A6
:102150000A6A9B101A4203D10A6822F001020A603F
:10216000012180F83D100020704770B5044690F8BA
:102170003C000025012817D0012684F83C6002208D
:1021800084F83D002068826822F0770222F47F42C2
:1021900082600868502838D00DDC20284FD005DC3C
:1021A00090B3102811D14AE0022070BD302846D0EB
:1021B00040280AD13BE060282FD070280DD0B0F520
:1021C000805F03D0B0F5005F12D0012584F83D6038
:1021D000002084F83C00284670BDCB68D1E901217D
:1021E000206800F0D9FD2068816841F0770109E09E
:1021F000CB68D1E90121206800F0CEFD206881681C
:1022000041F480418160E1E719E0CA6849682068CB
:1022100000F076FE5021206806E0CA684968206810
:1022200000F07FFE6021206800F0C0FDCEE7CA68A4
:102230004968206800F064FE40212068F4E72268C5
:1022400001461046F0E7704770B504460068016922
:102250004FF00005C943890715D4C168C9438907F0
:1022600011D4E91E01610120207720688069800770
:10227000204602D0FFF7E7FF04E000F098F8204680
:1022800000F062F9257720680169C943490717D42E
:10229000C168C943490713D46FF0040101610220EA
:1022A00020772068806910F4407F204602D0FFF735
:1022B000CAFF04E000F07BF8204600F045F92577DE
:1022C00020680169C943090716D4C168C9430907D1
:1022D00012D46FF008010161042020772068C069E2
:1022E0008007204602D0FFF7AEFF04E000F05FF861
:1022F000204600F029F9257720680169C943C906FD
:1023000017D4C168C943C90613D46FF01001016125
:10231000082020772068C06910F4407F204602D052
:10232000FFF791FF04E000F042F8204600F00CF9BE
:10233000257720680169C943C90708D1C168C94325
:10234000C90704D1891E0161204600F08FF9206879
:102350000169C943090609D4C168C943090605D4FE
:102360006FF0800101612046FFF74EFD2068016992
:10237000C943490609D4C168C943490605D46FF069
:1023800040010161204600F078F920680169C943E5
:1023900089060BD4C168C943890607D46FF02001B0
:1023A00001612046BDE87040FFF72FBD70BD70474A
:1023B00070B5044690F83C0000260D4601280FD069
:1023C000012084F83C006AB1042A1DD0082A2FD0CD
:1023D0000C2A3FD00126002084F83C00304670BD16
:1023E000022070BD206800F0E9FC2068816941F09E
:1023F000080181612068816921F004018161206800
:1024000081692A69114311E0206800F0FFFC20680F
:10241000816941F4006181612068816921F48061F2
:102420008161206881692A6941EA02218161D2E7DC
:10243000206800F017FD2068C16941F00801C16102
:102440002068C16921F00401C1612068C1692A695D
:10245000114311E0206800F031FD2068C16941F4AA
:102460000061C1612068C16921F48061C161206897
:10247000C1692A6941EA0221C161ACE710B50400D3
:1024800003D094F83D0010B107E0012010BD0020FA
:1024900084F83C00204600F01FF8022084F83D003C
:1024A000211D206800F012FC012084F8460084F809
:1024B0003E0084F83F0084F8400084F8410084F82E
:1024C000420084F8430084F8440084F8450084F80E
:1024D0003D00002010BD000030B50068174987B0EE
:1024E000884228D11648016841F001010160006866
:1024F00000F00100059012481438016841F0010114
:1025000001600068012400F0010005904FF4807024
:1025100000900220CDE901040320CDE90304094D18
:1025200069462846FEF7DEFF802000906946049445
:102530002846FEF7D7FF07B030BD0000000001407D
:1025400044380240000002407047000010B50446C5
:10255000022249B104290ED0082913D094F8410071
:10256000012816D0012010BD94F83E000128F9D1B1
:1025700084F83E200FE094F83F000128F2D184F85F
:102580003F2008E094F840000128EBD184F8402077
:1025900001E084F841200122206800F0E3FB1249A9
:1025A0002068884203D1426C42F4004242642068B1
:1025B00088420ED0B0F1804F0BD00C49884208D031
:1025C0000B49884205D00B49884202D00A4988420B
:1025D00004D1816801F00701062903D0016841F0A8
:1025E00001010160002010BD000001400004004016
:1025F00000080040000C00400040014030B5044697
:102600000D460068002200F0ADFB174B41F211119E
:1026100020688A10984209D1036A0B4206D1036AE6
:10262000134203D1436C23F4004343642068036ADC
:102630000B4206D1016A114203D1016821F0010168
:10264000016001203DB1042D08D0082D09D084F887
:102650004100002030BD84F83E00FAE784F83F00D6
:10266000F7E784F84000F4E7000001400068B0F1AB
:10267000804F01D1FFF73EB87047704770B5040036
:1026800004D094F83D00002510B106E0012070BD93
:1026900084F83C50204600F023F8242084F83D00C4
:1026A0002068C16821F40051C160204600F04CFC54
:1026B0002068016921F4904101612068416921F09D
:1026C0002A0141612068C16841F40051C16025645C
:1026D000202084F83D0084F83E00002070BD0000FA
:1026E000F0B587B0044614216846FDF71DFE1D496C
:1026F0002068884233D11C480024016841F0100151
:102700000160006800F01000059017481438016857
:1027100041F001010160016801F0010105910168CA
:1027200041F0020101600068022500F002000590FE
:102730004FF40070CDE9000502AA0326072782E8BE
:10274000D00069460948FEF7CDFE8020CDE900059E
:1027500002AA694682E8D0000548FEF7C3FE07B02A
:10276000F0BD00000010014044380240000002406B
:10277000000402402DE9F843044690F83D001F464E
:1027800016460D4620284CD1C5B1BEB194F83C0088
:10279000012846D0012084F83C004FF00008C4F81E
:1027A0004080212084F83D00FEF79EFFA6848146EC
:1027B000E684A068B0F5805F03D004E00120BDE8A6
:1027C000F883206928B12E465FF0000584F83C802C
:1027D0000EE00026FAE78021204600F03BFCA0B97D
:1027E000AEB116F8010B21684860E08C401EE08411
:1027F000E08C4B464FF0000200970028EBD14FF0E1
:102800004001204600F026FC30B10320D7E735F820
:10281000020BC0F30800E6E7202084F83D0000200A
:10282000CDE70220CBE7FEE708B5C820074D084CEE
:10283000009000226946E86901F07AFD20212046D7
:10284000FEF745FF009800F081FDF2E70000002050
:10285000000002407FB500241548009401940294C2
:102860001249039401604FF48031C0E901140461FE
:10287000047680F820400903C1620125C561491032
:10288000C460816280F830404561FEF7CBFA08B140
:10289000FEF7FBF9CDE90045694605480294FEF7CD
:1028A000F7F9002801D0FEF7F0F97FBD00200140C4
:1028B0001C060020094808B5016841F48001016048
:1028C0000068002200F48000009005213820FEF707
:1028D000A9FFBDE808403820FEF796BF3038024017
:1028E00030B5394DBBB0D5E90001CDE93901012141
:1028F00039A800F04AFD354C10350DF1C40C60626A
:1029000095E80F008CE80F00002131A8103D00F081
:1029100029FD2035E06195E80F0035AD85E80F0011
:10292000002135A800F01EFD274920621C2230310D
:102930006846FDF7E0FC0021684600F09FFD224953
:1029400020601C224C3107A8FDF7D5FC002107A808
:1029500000F094FD1C4960601C2268310EA8FDF750
:10296000CAFC00210EA800F089FD1749A0601C22B6
:10297000843115A8FDF7BFFC002115A800F07EFDED
:102980001149E0601C22A0311CA8FDF7B4FC002115
:102990001CA800F073FD0C4920611C22BC3123A847
:1029A000FDF7A9FC002123A800F068FD064960613D
:1029B0001C22D8312AA8FDF79EFC00212AA800F08D
:1029C0005DFDA0613BB030BDF04A00080000002072
:1029D0002DE9F04186B014216846FDF7A5FC284892
:1029E0000024016841F004010160016801F0040164
:1029F0000591016841F080010160016801F08001EA
:102A00000591016841F001010160016801F00101D7
:102A10000591016841F0020101600068194F00F062
:102A2000020040F22C450590002229463846FEF768
:102A300056FEDFF854804FF4876600223146404648
:102A4000FEF74DFE4FF40050CDE9000469460F48F3
:102A50000294FEF747FD00950125CDE90154694632
:102A600038460394FEF73EFD0096CDE901546946D1
:102A700040460394FEF736FD06B0BDE8F081000045
:102A800030380240000002400004024000080240CA
:102A900000B587B000211748009101910291039180
:102AA0000491134A059102603122C0E901210322F9
:102AB000C0E903218161FFF79BFA08B1FEF7E5F851
:102AC0004FF48050009069460A48FFF74EFB08B16A
:102AD000FEF7DBF8202004908020059004A905482B
:102AE000FFF7BEF9002801D0FEF7CFF807B000BD10
:102AF00000040040C40600200C4810B50A490160DB
:102B00004FF4E1314160002181600C22C160C0E9D5
:102B100004128161C161FFF7B1FD002803D0BDE857
:102B20001040FEF7B2B810BD001001400C070020A5
:102B3000FEE7FEE700F00AF8322000F0A3FB00F009
:102B400013F8642000F002FCF4E7000010B5002147
:102B50000448FFF7FBFCBDE8104000210148FFF7E7
:102B6000BDB900005007002010B500210448FFF750
:102B700045FDBDE8104000210148FFF705BA0000FF
:102B80005007002010B5502080F31188BFF34F8FFD
:102B9000BFF36F8F01F018FE18B104494FF0805059
:102BA0000860002080F3118810BD000004ED00E0F3
:102BB00030B593B030216846FDF7B6FB14210CA860
:102BC000FDF7B2FB1C480025016841F0805101600F
:102BD000006800F0805011901848016841F44041AD
:102BE00001600068022400F4404011900120009030
:102BF000000401908001CDE9064008AA0420642168
:102C000082E813000B906846FEF748FF08B172B6E1
:102C1000FEE70CA90F2081E831004FF48050CDE988
:102C20000F0503210CA8FEF72FFE002801D072B675
:102C3000FEE713B030BD0000403802400070004095
:102C40000248016841F470010160704788ED00E0BE
:102C500010B5174A0024154BC2E9024014615461B3
:102C6000C2E900311046FFF709FC114860214830E5
:102C7000002201603221C0E90114C4600461446192
:102C8000014684614838FFF793FB0948022164300C
:102C900004604460C0E902410903C0E90441C46121
:102CA0000146BDE810406438FFF7B0B800000140AD
:102CB000500700200148FFF7C7BA00005007002066
:102CC0000148FFF7C1BA0000D4050020F0B5026842
:102CD0001D4B1E4C9F031E4D1E4E984207D0B842FE
:102CE00005D0A04203D0A84201D0B04204D122F0C6
:102CF000700C4A6842EA0C02984210D0B8420ED0DA
:102D0000A0420CD0A8420AD0B04208D0124CA04237
:102D100005D0124CA04202D0114CA04203D122F4A3
:102D20004074CA6822434C6922F080022243026048
:102D30008A68C2620A688262984201D109690163A5
:102D400001214161F0BD000000000140000400408D
:102D500000080040000C00400040014000440140D9
:102D60000048014010B501F01F030121046A994099
:102D70008C430462016A9A401143016210BD10B590
:102D800001F01F030421046A99408C430462016A24
:102D90009A401143016210BD10B5846842EA0322D3
:102DA00024F47F440A432243826010BD826822F0EB
:102DB00070020A4342F007018160704730B5026A31
:102DC00022F001020262026A4368846924F07305FA
:102DD0000C682C4322F002058A682A430A4DA84257
:102DE0000BD122F00805CA6823F440732A434D69C9
:102DF00022F004021D438B692B43436084614968C0
:102E00004163026230BD00000000014030B5026A3B
:102E100022F010020262026A436884690D6824F499
:102E2000E64444EA05248D6822F0200242EA0512B5
:102E30000B4DA8420ED1CD6822F0800242EA051265
:102E40004D6923F4406343EA85038D6922F0400213
:102E500043EA85034360846149688163026230BD4F
:102E60000000014030B5026A22F480720262036AF7
:102E70004268C46923F4007324F073050C682C4382
:102E80008D6843EA05230C4DA8420ED1CD6823F48A
:102E9000006343EA05234D6922F4405242EA0512D9
:102EA0008D6923F4806342EA05124260C461496877
:102EB000C163036230BD00000000014030B5026A0A
:102EC00022F480520262046A4268C3690D6823F4E6
:102ED000E64343EA05238D6824F4005444EA0534AC
:102EE000064DA84204D14D6922F4804242EA85127F
:102EF0004260C36149680164046230BD0000014062
:102F000010B5036A046A24F001040462846924F0A1
:102F1000F00444EA021423F00A020A4384610262C4
:102F200010BD10B5036A23F0100303628369046ABD
:102F300023F4704343EA023224F0A00343EA011170
:102F40008261016210BD000070B50446006801692D
:102F5000E26821F44051114301612169A068E269EE
:102F600008436169114308432168CA6849F20C6348
:102F70009A430243CA6020684169A26921F4407102
:102F80001143416131492068884202D0304988426A
:102F900002D1FEF743FD01E0FEF730FDE2690023B8
:102FA000192164253226B2F5004F626828D0A0FBB3
:102FB0000101930F9200FDF76DF90146B0FBF5F0AA
:102FC0006FF01802504301EB800006EB0010B0FBDD
:102FD000F5F000F0F002B1FBF5F002EB0012B1FBEE
:102FE000F5F06FF01803584301EB800006EB00107A
:102FF000B0FBF5F000F00F0021681044886070BD50
:10300000A0FB010192185B41FDF744F90146B0FBBA
:10301000F5F00201B1FBF5F06FF01803584301EB36
:10302000800006EBC000B0FBF5F000F0F80002EB0A
:103030004002B1FBF5F0584301EB800006EBC00005
:10304000B0FBF5F000F00700D6E7000000100140EB
:10305000001401402DE9F041984617460E460446FB
:10306000069D27E0681C25D02DB1FEF73DFBA0EBA7
:103070000800A8421ED920680C3050E8001F21F437
:10308000D07140E80012002AF5D12068143050E8D1
:10309000001F21F0010140E80012002AF5D1202094
:1030A00084F83D0084F83E00002084F83C000320B2
:1030B000BDE8F0812068006836EA000004D00020F6
:1030C000B842CFD00020F3E70120F9E7FEE7000087
:1030D0000FB4054B10B503A9044A029800F028F874
:1030E00010BC5DF814FB0000B9320008B0000020ED
:1030F0000907090E002804DB00F1E02080F8001425
:10310000704700F00F0000F1E02080F8141D7047B8
:1031100002E008C8121F08C1002AFAD170477047A0
:10312000002001E001C1121F002AFBD170470000FE
:103130002DE9FF4F89B09B460446002506E025286F
:103140000BD05A460B999047641C6D1C20780028C0
:10315000F5D10DB02846BDE8F08F0027B846012212
:10316000474900E0074314F8013F203B02FA03F00F
:103170000842F7D120782E2819D114F8010F47F012
:1031800004072A280ED06FF02F022078A0F130011A
:1031900009290CD808EB880102EB410100EB01087A
:1031A000641CF2E70A98641C50F8048B0A9020789B
:1031B0000028CED0642808D0692806D075281ED0F3
:1031C0005A460B9990476D1C58E00A994FF00A092E
:1031D00001C90A91002802DA40422D2102E0390596
:1031E00004D52B218DF82010012103E0F90704D02C
:1031F0002021F7E78A4608AE0DE00021FAE70A9998
:103200004FF00A0901C90A91F7E74946FDF722F98B
:10321000303106F8011D0028F7D1ADEB060000F1B2
:103220002009780701D44FF00108C84502DDA8EB5A
:10323000090000E000208046002706E008A85A4662
:10324000C05D0B9990476D1C7F1C5745F6DB04E071
:1032500030205A460B9990476D1CB8F10001A8F137
:103260000108F5DC05E016F8010B5A460B9990476A
:103270006D1CB9F10001A9F10109F4DC641C65E7DA
:103280000928010070B54FF08045696A04464FF483
:103290007A76686A884201D3401A01E0CA43104432
:1032A000A04208D2B442F4D9012000F0D3FC696AEC
:1032B000A4F57A74EDE770BD03490A685206FCD59F
:1032C000C2B24A607047000000100140EFF3058071
:1032D000002800D00120704786B0142212A1684651
:1032E000FDF709F8FEF70EFAFFF762FCFFF770FB37
:1032F000FFF7E0FAFFF7AEFAFFF7FEFBFFF7C8FBB8
:1033000000216320FFF7A4FC4FF4FA70FFF7BAFF27
:103310004FF47A73132269460848FFF72BFAFFF738
:10332000DFFA00F01AF8FEE7554152542054455395
:1033300054204D4553534147450D0A000C070020CA
:1033400001460020842900D0C81C704710B500B980
:10335000012000F07FFC002010BD10B500F06CFDD6
:10336000002010BD38B5D0E9011204683AB1C36835
:103370002BB100200090204600F065FE38BD2046AD
:10338000BDE83840002200F03DBE38B543684BB17F
:10339000012909D10320002200901146012000F0EC
:1033A00052FE38BD012901D0002038BD0322002182
:1033B000012000F027FE040004D000231A4619461D
:1033C00000F0B8FE204638BD38B50024054600940C
:1033D000FFF77CFF90B16946284600F05BFF0128AB
:1033E00001D0FF2038BD009888B10A494FF08050C5
:1033F0000860BFF34F8FBFF36F8F08E000231A46BA
:103400001946284600F096FE012800D0FF242046E9
:1034100038BD000004ED00E038B505004FF00000B5
:1034200000900FD00024481C0ED001B10C46FFF7CD
:103430004DFFB8B16A460021284601F015F8012871
:1034400016D104E0802038BD4FF0FF34EFE700983C
:1034500080B109494FF080500860BFF34F8FBFF330
:103460006F8F07E02146284601F04CF8012801D073
:10347000FF2038BD002038BD04ED00E07FB50D46CB
:1034800004464169B0F9080081B1A16971B1FFF743
:1034900057FFD4E905128DE80700D4E900102B4648
:1034A000226901F052F9039004B070BDFFF748FFA4
:1034B00003A9CDE90001208A2B4682B2D4E900108D
:1034C00001F016F9012801D00020EDE70398EBE7A1
:1034D0002DE9F041184C0F460546E6682068001DAE
:1034E00000F0C6FA38B9206890F82C100120884006
:1034F000216981432161681C07D137B12168BDE88A
:10350000F0410E48091D00F0F7BA20683544B54275
:103510004560216805D2A06BBDE8F041091D00F0AF
:10352000D3BA606B091D00F0CFFAA06A854200D2C1
:10353000A562BDE8F081000048000020B00800202E
:103540002DE9F041054600F0E3FA2E4CA068401C3E
:10355000A06020682C4F10B1606940B32DE0256059
:10356000A068012829D1002606EB860007EB800021
:1035700000F09CFA761C072EF6D323488C3000F01E
:1035800095FA2148A03000F091FA1F48B43000F0BD
:103590008DFA1D48C83000F089FA1B48DC3000F075
:1035A00085FA19488C3060631430A06305E0206808
:1035B000E96AC06A884200D82560606A401C60627F
:1035C000E96A0120226988401043206101EB8100F3
:1035D00007EB8000291D00F08FFA00F0B9FA60694E
:1035E00000280CD02068E96AC06A884207D20749DF
:1035F0004FF080500860BFF34F8FBFF36F8FBDE86F
:10360000F081000048000020D407002004ED00E015
:1036100030B4026C0B46002A0BD0C1681144C16063
:103620008468A14201D30168C16030BC1846FCF730
:1036300062BE30BC70472DE9F041856B17460446E9
:103640000026026C82B1C7B1E068FCF754FEE16865
:10365000206C091AE1602268914202D2A168081A1E
:10366000E060022F16D017E02068A8B9A06801F02A
:1036700011F906460020A0600EE06068FCF73BFEF2
:10368000216C606808446060A168884204D32068A7
:10369000606001E005B16D1E6D1CA5633046BDE89C
:1036A000F08110B5044690F8510058B101280CD0B3
:1036B00002280FD0502080F31188BFF34F8FBFF343
:1036C0006F8FFEE7206B00F057FA2046BDE81040F0
:1036D00000F052BA10BD000010484FF4705142077C
:1036E00006D0C01D0D4920F00700411AC1F57051E8
:1036F0000B4A00230144C2E900030839183A21F0BB
:10370000070111604B600B600B1AC0E90013936056
:103710004FF000405360506170470000C408002023
:103720009C000020144E154CA6F1C8074FF080589D
:10373000DFF84C9012E000BF00F0EAF9F068C568CD
:10374000281D00F095F9A068401EA0606068401E2A
:10375000606000F0FDF92846FFF7A3FF60680028CD
:10376000EAD138680128F9D9C9F80080BFF34F8F32
:10377000BFF36F8FF2E700009C0800204800002094
:1037800004ED00E00346009829B10260C0E90F3162
:10379000012100F08BBC0060F8E72DE9F0479A4664
:1037A000DDE9098481466FF00303206B03EB82029D
:1037B0001044089E20F00707780707D0502080F3B8
:1037C0001188BFF34F8FBFF36F8FFEE7002561B104
:1037D000002023180A5C83F834200A5C12B1401CD4
:1037E0001028F6D384F8435001E084F83450072EB3
:1037F00000D30626E662C4E91165201D00F061F9D8
:1038000004F1180000F05DF92461C6F1070064625C
:10381000A061E56484F8505052464946384600F0AD
:1038200011F92060B8F1000F01D0C8F80040BDE8E0
:10383000F087000030B5114900E011460A68824265
:10384000FBD34B685C18844203D14068184448603D
:10385000084643681C18944209D1084C183C246857
:10386000A24209D052681A4442600A681268026093
:10387000814200D0086030BD0460F9E79C00002060
:1038800010B5044600F044F9A06B28B15FF00004C5
:1038900000F05EF9204610BD0124F9E70648416BAF
:1038A000096829B1416BC968C96849688162704774
:1038B0004FF0FF31FAE70000480000200848406858
:1038C000401C4FF0500080F3118804D0BFF34F8F9D
:1038D000BFF36F8FFEE7BFF34F8FBFF36F8FFEE72E
:1038E000A40000202DE9F041044600F011F994F9FC
:1038F000455004F1240609E0606A48B1304601F001
:103900005BF808B100F02AFA6D1E6DB2002DF3DCF1
:103910004FF0FF3684F8456000F01AF900F0F8F82F
:1039200094F9445004F1100709E0206948B1384681
:1039300001F042F808B100F011FA6D1E6DB2002DD1
:10394000F3DC84F84460BDE8F04100F001B9000008
:103950002DE9F0410546002700F0A4FA324E306808
:1039600008B9FFF7B9FE706905424ED1C5B30835F5
:1039700068070ED005F00700C0F10800054468078D
:1039800007D0502080F31188BFF34F8FBFF36F8FA4
:10399000FEE72DB37068854237D8234818300146BA
:1039A0000C6801E020460C466168A94202D22168F9
:1039B0000029F7D131688C4227D00768216801605F
:1039C00060680837411B10290FD96019420708D0D9
:1039D000502080F31188BFF34F8FBFF36F8FFEE746
:1039E00013E041606560FFF725FF61687068401A69
:1039F0007060B268904200D2B060706901430020EC
:103A0000C4E90001F068401CF06001F00FF878078D
:103A100007D0502080F31188BFF34F8FBFF36F8F13
:103A2000FEE73846BDE8F0818400002004490868BC
:103A300018B10868826C521C8264086870470000E4
:103A40004800002010B5031F4FF080741C601B1F3E
:103A500021F001011960191F044B0B6014390A6031
:103A6000091F6FF0020244380A6010BDBD3800081B
:103A7000D0E9013201699A60D0E901235A604A68AD
:103A8000824201D182684A60002202610868401EB9
:103A90000860086870470000034B036003F154009E
:103AA0000860802010607047A802002000F1080123
:103AB0004FF0FF32C0E90112C160016100210160D5
:103AC000704700210161704730B50B685A1C02D065
:103AD00000F1080202E0026904E022465468256809
:103AE0009D42FAD953684B6099608A6051600861C1
:103AF0000168491C016030BD42684A6093688B6070
:103B000093685960916008610168491C01607047C1
:103B1000502080F31188BFF34F8FBFF36F8F0A4996
:103B20004868401C486001280CD10848006810F023
:103B3000FF0F07D0502080F31188BFF34F8FBFF3E2
:103B40006F8FFEE770470000A400002004ED00E046
:103B50000849486828B1401E486001D180F31188A7
:103B60007047502080F31188BFF34F8FBFF36F8FE2
:103B7000FEE70000A400002070B500282AD0164DF2
:103B8000A0F1080460686969084207D1502080F3F9
:103B90001188BFF34F8FBFF36F8FFEE722683AB1F2
:103BA000502080F31188BFF34F8FBFF36F8FFEE774
:103BB0008843606000F076F960686968084468606E
:103BC0002046FFF737FE2869401C2861BDE8704099
:103BD00000F02CBF70BD0000840000204FF0E020FA
:103BE00000210161816105494FF47A720968B1FBD6
:103BF000F2F1491E41610721016170474400002034
:103C000010B5FCF731FB114910280ED300F1E0206C
:103C100090F8F0030A78904207D2502080F3118880
:103C2000BFF34F8FBFF36F8FFEE7094800688968C5
:103C300000F4E060884207D9502080F31188BFF378
:103C40004F8FBFF36F8FFEE710BD0000A400002070
:103C50000CED00E010B5020014D00F48006B38B135
:103C6000502080F31188BFF34F8FBFF36F8FFEE7B3
:103C700000F018F900211046FFF72AFC00F0D6FEEC
:103C8000002807D105494FF080500860BFF34F8FDF
:103C9000BFF36F8F10BD00004800002004ED00E06E
:103CA00070B50546FFF734FF254C05B92568281D7A
:103CB000FFF7DEFE58B9E86A224A00EB800152F8AD
:103CC000211021B901218140206988432061A86A1F
:103CD00018B105F11800FFF7CBFE606A401C606266
:103CE0002068854208D11748291DC830FFF704FF16
:103CF0006068401C606007E0A068401EA060284625
:103D0000FFF7CFFCFFF7CAFDFFF722FF606900282D
:103D100014D02068854211D1206B38B1502080F337
:103D20001188BFF34F8FBFF36F8FFEE706494FF047
:103D300080500860BFF34F8FBFF36F8F70BD0000DE
:103D400048000020D407002004ED00E002490A6A80
:103D50000260C968416070474800002001490120A5
:103D6000C86170474800002010B50C4650B10949A1
:103D700009681831FFF7A8FE2046BDE81040012170
:103D8000FFF7A6BB502080F31188BFF34F8FBFF31E
:103D90006F8FFEE74800002070B5040047D0A26C8A
:103DA000A2B1606C884200D30146E06A88423ED0EE
:103DB000012A3CD11E4D2A6894420FD1502080F335
:103DC0001188BFF34F8FBFF36F8FFEE7502080F352
:103DD0001188BFF34F8FBFF36F8FFEE7E162A269D7
:103DE000002A02DBC1F10701A161124E00EB800045
:103DF000616906EB8000814219D1201DFFF738FE72
:103E0000012130B994F82C002A6901FA00F08243AC
:103E10002A61E06A2A6981401143296100EB800030
:103E200006EB8000211DBDE87040FFF765BE70BD48
:103E300048000020D407002010B586B00024039469
:103E400005AA04A903A80494FFF726FEDDE90301EF
:103E50000094CDE9011000230EA11048059A00F04E
:103E600074FC0F490028C86211D0502080F31188DB
:103E7000BFF34F8FBFF36F8F4FF0FF308862012089
:103E80004861CC6006B0BDE8104000F041B806B013
:103E900010BD000049444C450000000025370008D3
:103EA000480000200248016B491C01637047000074
:103EB000480000201448016B11B10121C161704715
:103EC0000021C1610169B1FA81F1C1F11F0101EB6A
:103ED00081020E4951F822306BB101EB820101F1F0
:103EE00008034A6852684A609A4201D152684A609F
:103EF000D16801607047502080F31188BFF34F8F65
:103F0000BFF36F8FFEE7000048000020D4070020B9
:103F10001CB537480168374A914207D1502080F3D9
:103F20001188BFF34F8FBFF36F8FFEE700683149F1
:103F3000491E884207D1502080F31188BFF34F8F6C
:103F4000BFF36F8FFEE72C4908780190FF200870BF
:103F500008788DF800009DF800009DF8002000F022
:103F6000F000904207D0502080F31188BFF34F8FAC
:103F7000BFF36F8FFEE79DF80000204C00F050006B
:103F800020700720A06005E09DF8002052008DF809
:103F90000020401E9DF800201206F5D4A0600328E2
:103FA00007D0502080F31188BFF34F8FBFF36F8F7E
:103FB000FEE74FF44070A060019808700C48203074
:103FC000016841F470010160016841F070410160D5
:103FD000FFF704FE00206060FCF70EF90848016856
:103FE00041F040410160FCF7F3F800201CBD0000E7
:103FF00000ED00E071C20F4100E400E0A4000020E9
:1040000034EF00E0F8B517460E46050013D005FB67
:1040100006F04830FFF79CFC04000AD0002084F82A
:10402000460004F148023B46314628460094FFF71B
:10403000A9FB2046F8BD502080F31188BFF34F8FB5
:10404000BFF36F8FFEE738B5049D18B153B1CAB105
:1040500081B120E0502080F31188BFF34F8FBFF370
:104060006F8FFEE7502080F31188BFF34F8FBFF3AF
:104070006F8FFEE7502080F31188BFF34F8FBFF39F
:104080006F8FFEE739B1502080F31188BFF34F8F57
:10409000BFF36F8FFEE748241C46012384F84630A7
:1040A0002B460094FFF76EFB204638BD70B50D46D9
:1040B000040025D0FFF72CFDD4E90F20216802FB76
:1040C0000011A1600021A163216861600A46D4E962
:1040D0000F01401E00FB0121E16021464FF0FF303F
:1040E00001F8440F487004F110008DB1FFF7DEFCB9
:1040F00004F12400FFF7DAFCFFF72AFD012070BD70
:10410000502080F31188BFF34F8FBFF36F8FFEE70E
:1041100021690029F0D000F04FFC0028ECD00449C0
:104120004FF080500860BFF34F8FBFF36F8FE3E70E
:1041300004ED00E02DE9FF4782B01D468A464FF0AE
:104140000008040003D0BAF1000F08D011E050209D
:1041500080F31188BFF34F8FBFF36F8FFEE7206CA2
:1041600038B1502080F31188BFF34F8FBFF36F8FAA
:10417000FEE7022D0AD1E06B012807D0502080F322
:104180001188BFF34F8FBFF36F8FFEE700F008FB7E
:104190003F4F4FF000094FF0805648B9049838B1AE
:1041A000502080F31188BFF34F8FBFF36F8FFEE76E
:1041B000FFF7AEFCA06BE16B884207D3022D05D060
:1041C0000498D0B1B8F1000F1AD01EE02A4651462B
:1041D0002046FFF730FA616A19B104F1240000F0BB
:1041E000EBFB20B13E60BFF34F8FBFF36F8FFFF744
:1041F000AFFC012006B0BDE8F087FFF7A9FC22E084
:104200006846FFF7A3FD4FF00108FFF7A1FCFFF799
:1042100049FEFFF77DFC94F94400401C01D184F86D
:10422000449094F94500401C01D184F84590FFF773
:104230008FFC04A9684600F021FA30B12046FFF750
:1042400051FB00F0F3FB0020D4E7FFF761FCA06B0B
:10425000E16B884213D1FFF77BFC04F11000049955
:10426000FFF782FD2046FFF73DFB00F0DFFB002853
:104270009ED13E60BFF34F8FBFF36F8F98E7FFF77C
:1042800067FC2046FFF72EFB00F0D0FB90E7000014
:1042900004ED00E070B50E46040009D0206C78B142
:1042A000502080F31188BFF34F8FBFF36F8FFEE76D
:1042B000502080F31188BFF34F8FBFF36F8FFEE75D
:1042C000206848B9A06838B1502080F31188BFF346
:1042D0004F8FBFF36F8FFEE7FFF792FC5020EFF395
:1042E000118580F31188BFF34F8FBFF36F8FA16BE0
:1042F000E06B884218D994F94500491CA163411C20
:1043000004D0401C84F8450001200EE0606A0028BB
:10431000FAD004F1240000F04FFB0028F4D0002E66
:10432000F2D001203060EFE7002085F3118870BDE6
:104330002DE9F747002683B08A46040003D0BAF17E
:10434000000F08D011E0502080F31188BFF34F8F89
:10435000BFF36F8FFEE7206C38B1502080F31188D7
:10436000BFF34F8FBFF36F8FFEE700F019FADFF84E
:10437000F4804FF000094FF0805748B9059838B1E4
:10438000502080F31188BFF34F8FBFF36F8FFEE78C
:10439000FFF7BEFBA56BC5B151462046FFF738F9C4
:1043A0006D1EA563206950B104F1100000F004FBFC
:1043B00028B1C8F80070BFF34F8FBFF36F8FFFF7BE
:1043C000C7FB012006B0BDE8F087059808B11EB113
:1043D00006E0FFF7BDFB27E06846FFF7B7FC0126C4
:1043E000FFF7B6FBFFF75EFDFFF792FB94F9440081
:1043F000401C01D184F8449094F94500401C01D13F
:1044000084F84590FFF7A4FB05A9684600F036F94B
:10441000002820460AD0FFF765FA00F007FB204687
:10442000FFF72EFA0028B3D00020CBE7FFF728FAD9
:1044300090B104F124000599FFF796FC2046FFF7A0
:1044400051FA00F0F3FA0028A2D1C8F80070BFF3C7
:104450004F8FBFF36F8F9BE72046FFF743FA00F0C3
:10446000E5FA95E704ED00E02DE9F047904689462E
:10447000040003D0B9F1000F08D011E0502080F300
:104480001188BFF34F8FBFF36F8FFEE7206C38B1F9
:10449000502080F31188BFF34F8FBFF36F8FFEE77B
:1044A000FFF7AEFB5020EFF3118680F31188BFF3C6
:1044B0004F8FBFF36F8FA76BF7B194F94450494604
:1044C0002046FFF7A5F87F1EA763681C04D06D1C6B
:1044D00084F84450012010E020690028FAD004F14B
:1044E000100000F069FA0028F4D0B8F1000FF1D004
:1044F0000121C8F80010EDE7002086F31188BDE81F
:10450000F08700002DE9F343002683B00400354610
:1045100009D0206C78B1502080F31188BFF34F8F01
:10452000BFF36F8FFEE7502080F31188BFF34F8FEA
:10453000BFF36F8FFEE700F033F9DFF83C814FF0F7
:1045400000094FF0805748B9049838B1502080F3E3
:104550001188BFF34F8FBFF36F8FFEE7FFF7D8FAD5
:10456000A06BC8B1401EA063206810B9FFF75EFAC7
:10457000A060206950B104F1100000F01DFA28B1CC
:10458000C8F80070BFF34F8FBFF36F8FFFF7E0FAEB
:10459000012005B0BDE8F083049808B166B10FE0D2
:1045A0003DB1502080F31188BFF34F8FBFF36F8F61
:1045B000FEE7FFF7CDFA5DE06846FFF7C7FB01268F
:1045C000FFF7C6FAFFF76EFCFFF7A2FA94F9440072
:1045D000401C01D184F8449094F94500401C01D15D
:1045E00084F84590FFF7B4FA04A9684600F046F84D
:1045F0000028204612D0FFF775F900F017FA204680
:10460000FFF73EF90028A9D09DB3FFF781FA606A51
:1046100050B3206B0068C0F1070126E0FFF730F9C6
:10462000E0B1206838B9FFF773FAA06800F07EF9AE
:104630000546FFF78DFA04F124000499FFF794FB77
:104640002046FFF74FF900F0F1F9002886D1C8F8AD
:104650000070BFF34F8FBFF36F8F7FE72046FFF7E8
:1046600041F900F0E3F979E70021A068FFF794FB36
:104670009FE7FFE700208CE704ED00E02DE9F04123
:104680000C46050011D0C4B1FFF742FA174BDA68A7
:104690006E682068911B471C17D02F681B6A9F42C9
:1046A00019D0964217D8012410E0502080F31188C9
:1046B000BFF34F8FBFF36F8FFEE7502080F3118859
:1046C000BFF34F8FBFF36F8FFEE70024FFF740FA71
:1046D0002046BDE8F081884205D9401A206028466E
:1046E000FFF734FBF1E700202060DCE74800002002
:1046F0002DE9FF5F8346DDE90E87994616468A4617
:104700009000FFF725F905001CD05420FFF720F991
:10471000040014D00020256384F85100CDE9024044
:10472000CDE900874B46324651465846FFF735F8EB
:104730002046FEF705FF012004B0BDE8F09F2846A3
:10474000FFF71AFA4FF0FF30F6E7F0B585B0DDE974
:104750000B640A9DA6B1DCB154270097266302269C
:1047600084F85160002604AFCDE90246CDE9005738
:10477000FFF713F82046FEF7E3FE049805B0F0BDFE
:10478000502080F31188BFF34F8FBFF36F8FFEE788
:10479000502080F31188BFF34F8FBFF36F8FFEE778
:1047A0000548416919B1006B18B10020704701201C
:1047B0007047022070470000480000200148C06890
:1047C00070470000480000202DE9F0412F4C0026E2
:1047D000206B28B1A069401CA0613046BDE8F08183
:1047E000E5686D1CE56013D1606B006838B150203E
:1047F00080F31188BFF34F8FBFF36F8FFEE7606BBD
:10480000A16B6163A063206A401C2062FFF746F839
:10481000A06ADFF87C80854209D3606B0068A0B194
:10482000606BC068C7687868854211D2A062206852
:10483000C06A00EB800158F82100012800D9012648
:10484000E0690028C9D00126C7E74FF0FF30EDE747
:10485000381DFFF70DF9B86A18B107F11800FFF716
:1048600007F9F96A0120226988401043206101EBB1
:10487000810108EB8100391DFFF73EF9F86A2168D4
:10488000C96A8842C9D30126C7E700004800002052
:10489000D407002070B504004FF0000140D0214D36
:1048A0002868844207D0502080F31188BFF34F8FCF
:1048B000BFF36F8FFEE7A06C38B1401EA064636C3D
:1048C000E26A9A422CD040B12AE0502080F311884D
:1048D000BFF34F8FBFF36F8FFEE7201DFFF7C8F8C0
:1048E000114A012150B9E06A00EB800352F82330ED
:1048F00023B92B6901FA00F083432B61606CE062FD
:10490000C0F10700A061E06A2B6981401943296169
:1049100000EB800002EB8000211DFFF7EDF8012184
:10492000084670BD48000020D407002070B5040080
:104930004FF0000034D01E4DE16A2A68D26A9142DD
:104940002FD2A069002804DB2868C06AC0F10700E4
:10495000A061184E01EB8101606906EB810188427C
:104960001AD1201DFFF784F8012130B994F82C00EA
:104970002A6901FA00F082432A612868C06AE0626D
:104980002A6981401143296100EB800006EB800019
:10499000211DFFF7B1F802E02868C06AE06201203B
:1049A00070BD616C2A68D26A9142F8D370BD000074
:1049B00048000020D40700202DE9F041C068C468F9
:1049C000ACB104F118000746FFF752F8154D286BFB
:1049D0000126A0B139461448FFF78EF8E06A29682D
:1049E000C96A88421CD90120EE61BDE8F0815020DF
:1049F00080F31188BFF34F8FBFF36F8FFEE7201D49
:104A0000FFF736F8E16A2A6906FA01F010432861D7
:104A100001EB81000449B43901EB8000211DDBE783
:104A20000020E2E748000020880800202DE9F04738
:104A30002C4D00242746286B38B1FFF769F8286B06
:104A4000401E2863286B40B146E0502080F3118857
:104A5000BFF34F8FBFF36F8FFEE7A968224E01208F
:104A6000D1B3A6F1B40980463068E8B1F068C468F3
:104A700004F11800FEF7FCFF201DFEF7F9FFE06AC5
:104A80002A6908FA00F11143296100EB800109EB62
:104A90008100211DFFF730F8E06A2968C96A884261
:104AA000E2D3C5F81C80DFE70CB1FEF7F7FEAC6976
:104AB00044B14646FFF788FE00B1EE61641EF9D1AD
:104AC0000020A861E86938B1084901273807086063
:104AD000BFF34F8FBFF36F8FFFF73AF83846BDE84B
:104AE000F0870000480000208808002004ED00E066
:104AF000000000008C050020C800F401E803D00786
:104B0000010000000200000028000020FC0400203A
:104B100001000000080000002A00002044050020D9
:104B20000C4C0008292800080000000000000000CC
:104B30008000000000000000000000002C4C000875
:104B4000C90A000801000000000000008000000009
:104B50000000000000000000484C0008C5050008E7
:104B6000FFFF0000000000008000000000000000C7
:104B7000000000001C4C00089D050008000000001B
:104B800000000000800000000000000000000000A5
:104B9000044C0008E10900080200000000000000C9
:104BA000800000000000000000000000384C0008F9
:104BB000090A0008000000000000000000010000D9
:104BC0000000000000000000144C0008352B000815
:104BD0000100000000000000800000000000000054
:104BE000000000000006101600061016000000006D
:104BF000000000000102030406070809000000008D
:104C0000010203044144435461736B004C45445416
:104C100061736B0050574D5461736B0041443938D8
:104C200035304354525461736B0000004275747404
:104C30006F6E5461736B000041444350726F636543
:104C400073735461736B0000414439383530696EB9
:104C500069745461736B0000784C000800000020F8
:104C6000B4000000103100082C4D0008B4000020F2
:104C7000144800002031000800000000000000007F
:104C80000000000000000000000000000000000024
:104C90000000000000000000000000000000000014
:104CA0000000000000000000000000000000000004
:104CB0000100000010000000000000000024F400CB
:104CC00000000000000000000000000000000000E4
:104CD00000000000000000000000000000000000D4
:104CE00000000000000000000000000000000000C4
:104CF00000000000000000000000000000000000B4
:104D000000000000000000000000000000000000A3
:104D10000000000000000000000000000000000093
:0C4D2000AAAAAAAA0000000000000000DF
:040000050800019955
:00000001FF
